{
  "_format": "hh3-artifact-1",
  "contractName": "CourseCompletionTracker",
  "sourceName": "contracts/CourseCompletionTracker.sol",
  "abi": [
    {
      "inputs": [
        {
          "internalType": "address",
          "name": "_tokenAddress",
          "type": "address"
        }
      ],
      "stateMutability": "nonpayable",
      "type": "constructor"
    },
    {
      "inputs": [
        {
          "internalType": "address",
          "name": "owner",
          "type": "address"
        }
      ],
      "name": "OwnableInvalidOwner",
      "type": "error"
    },
    {
      "inputs": [
        {
          "internalType": "address",
          "name": "account",
          "type": "address"
        }
      ],
      "name": "OwnableUnauthorizedAccount",
      "type": "error"
    },
    {
      "anonymous": false,
      "inputs": [
        {
          "indexed": true,
          "internalType": "address",
          "name": "student",
          "type": "address"
        },
        {
          "indexed": true,
          "internalType": "uint256",
          "name": "courseId",
          "type": "uint256"
        }
      ],
      "name": "CompletionMarked",
      "type": "event"
    },
    {
      "anonymous": false,
      "inputs": [
        {
          "indexed": true,
          "internalType": "uint256",
          "name": "courseId",
          "type": "uint256"
        },
        {
          "indexed": false,
          "internalType": "uint256",
          "name": "rewardAmount",
          "type": "uint256"
        }
      ],
      "name": "CourseAdded",
      "type": "event"
    },
    {
      "anonymous": false,
      "inputs": [
        {
          "indexed": true,
          "internalType": "address",
          "name": "previousOwner",
          "type": "address"
        },
        {
          "indexed": true,
          "internalType": "address",
          "name": "newOwner",
          "type": "address"
        }
      ],
      "name": "OwnershipTransferred",
      "type": "event"
    },
    {
      "anonymous": false,
      "inputs": [
        {
          "indexed": true,
          "internalType": "address",
          "name": "student",
          "type": "address"
        },
        {
          "indexed": true,
          "internalType": "uint256",
          "name": "courseId",
          "type": "uint256"
        },
        {
          "indexed": false,
          "internalType": "uint256",
          "name": "rewardAmount",
          "type": "uint256"
        }
      ],
      "name": "RewardClaimed",
      "type": "event"
    },
    {
      "anonymous": false,
      "inputs": [
        {
          "indexed": true,
          "internalType": "address",
          "name": "to",
          "type": "address"
        },
        {
          "indexed": false,
          "internalType": "uint256",
          "name": "amount",
          "type": "uint256"
        }
      ],
      "name": "TokensWithdrawn",
      "type": "event"
    },
    {
      "inputs": [
        {
          "internalType": "uint256",
          "name": "courseId",
          "type": "uint256"
        },
        {
          "internalType": "uint256",
          "name": "rewardAmount",
          "type": "uint256"
        }
      ],
      "name": "addCourse",
      "outputs": [],
      "stateMutability": "nonpayable",
      "type": "function"
    },
    {
      "inputs": [
        {
          "internalType": "uint256",
          "name": "courseId",
          "type": "uint256"
        }
      ],
      "name": "claimReward",
      "outputs": [],
      "stateMutability": "nonpayable",
      "type": "function"
    },
    {
      "inputs": [
        {
          "internalType": "address",
          "name": "",
          "type": "address"
        },
        {
          "internalType": "uint256",
          "name": "",
          "type": "uint256"
        }
      ],
      "name": "courseCompletions",
      "outputs": [
        {
          "internalType": "enum CourseCompletionTracker.CourseStatus",
          "name": "",
          "type": "uint8"
        }
      ],
      "stateMutability": "view",
      "type": "function"
    },
    {
      "inputs": [
        {
          "internalType": "uint256",
          "name": "",
          "type": "uint256"
        }
      ],
      "name": "courseRewards",
      "outputs": [
        {
          "internalType": "uint256",
          "name": "",
          "type": "uint256"
        }
      ],
      "stateMutability": "view",
      "type": "function"
    },
    {
      "inputs": [
        {
          "internalType": "address",
          "name": "student",
          "type": "address"
        },
        {
          "internalType": "uint256",
          "name": "courseId",
          "type": "uint256"
        }
      ],
      "name": "markCompletion",
      "outputs": [],
      "stateMutability": "nonpayable",
      "type": "function"
    },
    {
      "inputs": [],
      "name": "owner",
      "outputs": [
        {
          "internalType": "address",
          "name": "",
          "type": "address"
        }
      ],
      "stateMutability": "view",
      "type": "function"
    },
    {
      "inputs": [],
      "name": "renounceOwnership",
      "outputs": [],
      "stateMutability": "nonpayable",
      "type": "function"
    },
    {
      "inputs": [],
      "name": "tokenAddress",
      "outputs": [
        {
          "internalType": "address",
          "name": "",
          "type": "address"
        }
      ],
      "stateMutability": "view",
      "type": "function"
    },
    {
      "inputs": [
        {
          "internalType": "address",
          "name": "newOwner",
          "type": "address"
        }
      ],
      "name": "transferOwnership",
      "outputs": [],
      "stateMutability": "nonpayable",
      "type": "function"
    },
    {
      "inputs": [
        {
          "internalType": "uint256",
          "name": "amount",
          "type": "uint256"
        }
      ],
      "name": "withdrawTokens",
      "outputs": [],
      "stateMutability": "nonpayable",
      "type": "function"
    }
  ],
  "bytecode": "0x608060405234801561000f575f5ffd5b50604051610a85380380610a8583398101604081905261002e916100d1565b338061005357604051631e4fbdf760e01b81525f600482015260240160405180910390fd5b61005c81610082565b50600180546001600160a01b0319166001600160a01b03929092169190911790556100fe565b5f80546001600160a01b038381166001600160a01b0319831681178455604051919092169283917f8be0079c531659141344cd1fd0a4f28419497f9722a3daafe3b4186f6b6457e09190a35050565b5f602082840312156100e1575f5ffd5b81516001600160a01b03811681146100f7575f5ffd5b9392505050565b61097a8061010b5f395ff3fe608060405234801561000f575f5ffd5b506004361061009b575f3560e01c80639d76ea58116100635780639d76ea5814610136578063ae169a5014610149578063ee28b27d1461015c578063f2fde38b14610189578063f967f76f1461019c575f5ffd5b8063315a095d1461009f578063377a44fd146100b45780633dc38fc1146100f7578063715018a61461010a5780638da5cb5b14610112575b5f5ffd5b6100b26100ad366004610851565b6101af565b005b6100e16100c2366004610883565b600360209081525f928352604080842090915290825290205460ff1681565b6040516100ee91906108bf565b60405180910390f35b6100b26101053660046108e5565b61031d565b6100b261040b565b5f546001600160a01b03165b6040516001600160a01b0390911681526020016100ee565b60015461011e906001600160a01b031681565b6100b2610157366004610851565b61041e565b61017b61016a366004610851565b60026020525f908152604090205481565b6040519081526020016100ee565b6100b2610197366004610905565b61064b565b6100b26101aa366004610883565b610688565b6101b76107d6565b5f811161020b5760405162461bcd60e51b815260206004820152601960248201527f416d6f756e742073686f756c6420626520706f7369746976650000000000000060448201526064015b60405180910390fd5b60015460405163a9059cbb60e01b8152336004820152602481018390525f916001600160a01b03169063a9059cbb906044016020604051808303815f875af1158015610259573d5f5f3e3d5ffd5b505050506040513d601f19601f8201168201806040525081019061027d9190610925565b9050806102e35760405162461bcd60e51b815260206004820152602e60248201527f546f6b656e207472616e73666572206661696c6564207768696c65207769746860448201526d64726177696e6720746f6b656e7360901b6064820152608401610202565b60405182815233907f6352c5382c4a4578e712449ca65e83cdb392d045dfcf1cad9615189db2da244b906020015b60405180910390a25050565b6103256107d6565b5f82815260026020526040902054156103785760405162461bcd60e51b8152602060048201526015602482015274436f7572736520616c72656164792065786973747360581b6044820152606401610202565b5f81116103c75760405162461bcd60e51b815260206004820181905260248201527f52657761726420616d6f756e742073686f756c6420626520706f7369746976656044820152606401610202565b5f82815260026020526040908190208290555182907fdcd3dc499f1efd81e420ac9ec6b90dc1de6f0537ad2fdfaa2fd666531e15bdb2906103119084815260200190565b6104136107d6565b61041c5f610802565b565b5f818152600260205260409020546104705760405162461bcd60e51b815260206004820152601560248201527410dbdd5c9cd948191bd95cc81b9bdd08195e1a5cdd605a1b6044820152606401610202565b6001335f90815260036020908152604080832085845290915290205460ff1660028111156104a0576104a06108ab565b146105085760405162461bcd60e51b815260206004820152603260248201527f436f75727365206e6f7420636f6d706c657465642062792073747564656e74206044820152711bdc88185b1c9958591e4818db185a5b595960721b6064820152608401610202565b5f8181526002602081815260408084205433855260038352818520868652909252909220805460ff1916600183021790555060015460405163a9059cbb60e01b8152336004820152602481018390525f916001600160a01b03169063a9059cbb906044016020604051808303815f875af1158015610588573d5f5f3e3d5ffd5b505050506040513d601f19601f820116820180604052508101906105ac9190610925565b90508061060f5760405162461bcd60e51b815260206004820152602b60248201527f546f6b656e207472616e73666572206661696c6564207768696c6520636c616960448201526a1b5a5b99c81c995dd85c9960aa1b6064820152608401610202565b604051828152839033907ff01da32686223933d8a18a391060918c7f11a3648639edd87ae013e2e27317439060200160405180910390a3505050565b6106536107d6565b6001600160a01b03811661067c57604051631e4fbdf760e01b81525f6004820152602401610202565b61068581610802565b50565b6106906107d6565b5f818152600260205260409020546106e25760405162461bcd60e51b815260206004820152601560248201527410dbdd5c9cd948191bd95cc81b9bdd08195e1a5cdd605a1b6044820152606401610202565b6001600160a01b0382165f90815260036020908152604080832084845290915281205460ff166002811115610719576107196108ab565b1461077d5760405162461bcd60e51b815260206004820152602e60248201527f436f7572736520616c726561647920636f6d706c65746564206f7220636c616960448201526d1b595908189e481cdd1d59195b9d60921b6064820152608401610202565b6001600160a01b0382165f818152600360209081526040808320858452909152808220805460ff19166001179055518392917f946854a7214c0839d7909ee91ae8edd73969fe669a5ae4ba49d0eae90ac537ae91a35050565b5f546001600160a01b0316331461041c5760405163118cdaa760e01b8152336004820152602401610202565b5f80546001600160a01b038381166001600160a01b0319831681178455604051919092169283917f8be0079c531659141344cd1fd0a4f28419497f9722a3daafe3b4186f6b6457e09190a35050565b5f60208284031215610861575f5ffd5b5035919050565b80356001600160a01b038116811461087e575f5ffd5b919050565b5f5f60408385031215610894575f5ffd5b61089d83610868565b946020939093013593505050565b634e487b7160e01b5f52602160045260245ffd5b60208101600383106108df57634e487b7160e01b5f52602160045260245ffd5b91905290565b5f5f604083850312156108f6575f5ffd5b50508035926020909101359150565b5f60208284031215610915575f5ffd5b61091e82610868565b9392505050565b5f60208284031215610935575f5ffd5b8151801515811461091e575f5ffdfea264697066735822122041c1a85c42f8f3674c89df6025124256ed44010de91c17a74cbec2ca8489740164736f6c634300081c0033",
  "linkReferences": {},
  "deployedLinkReferences": {},
  "immutableReferences": {},
  "inputSourceName": "project/contracts/CourseCompletionTracker.sol",
  "buildInfoId": "solc-0_8_28-34557fd9f93d95f0ff1f038c1e5793c477cd80a9"
}